:100000000C942D000C9436010C945D010C94840129
:100010000C94D2010C94D2010C94BC000C94D80125
:100020000C94D9010C948B000C94C8010C940E0113
:100030000C94D2010C94D2010C94D2010C94D201F4
:100040000C9457000C94D2010C94D2010C94D20160
:100050000C94D20100600073800011241FBECFE514
:10006000D8E0DEBFCDBFE4E5F0E040E017C0B591D9
:10007000A59135912591059107FD0CC0959185912C
:10008000EF01F92FE82F05900D92A217B307D9F7CA
:10009000FE0104C01D92A217B307E1F7E935F4078A
:0E00A00031F70E94E5000C94BD01F894FFCFEB
:1000AE001F920F920FB60F9211242F933F934F93DF
:1000BE005F936F937F938F939F93AF93BF93EF93C2
:1000CE00FF9384B125B1E0916000F091610090E062
:1000DE00922B9183808310927200E0916200F091D6
:1000EE00630009953398FF91EF91BF91AF919F9166
:1000FE008F917F916F915F914F913F912F910F90C3
:08010E000FBE0F901F90189521
:100116001F920F920FB60F9211242F933F934F9376
:100126005F936F937F938F939F93AF93BF93EF9359
:10013600FF93E0917000F0917100099580916E0037
:1001460090916F009DBD80916E0090916F008CBD67
:10015600FF91EF91BF91AF919F918F917F916F9199
:100166005F914F913F912F910F900FBE0F901F906F
:020176001895DA
:100178001F920F920FB60F9211242F933F934F9314
:100188005F936F937F938F939F93AF93BF93EF93F7
:10019800FF93E0916C00F0916D00309709F009959C
:1001A800FF91EF91BF91AF919F918F917F916F9147
:1001B8005F914F913F912F910F900FBE0F901F901D
:0201C800189588
:1001CA000E94D4010E94AB0181E40E94CE012FEF6C
:1001DA0089E698E1215080409040E1F700C0000094
:1001EA0082E40E94CE012FEF89E698E121508040F7
:1001FA009040E1F700C0000083E40E94CE012FEF97
:10020A0089E698E1215080409040E1F700C0000063
:02021A00DBCF38
:10021C001F920F920FB60F9211242F933F934F936F
:10022C005F936F937F938F939F93AF93BF93EF9352
:10023C00FF93E0916A00F0916B00099512BEFF915B
:10024C00EF91BF91AF919F918F917F916F915F9142
:10025C004F913F912F910F900FBE0F901F901895BB
:10026C001F920F920FB60F9211242F933F934F931F
:10027C005F936F937F938F939F93AF93BF93EF9302
:10028C00FF93E0916800F09169000995FF91EF915F
:10029C00BF91AF919F918F917F916F915F914F9192
:0E02AC003F912F910F900FBE0F901F9018954D
:1002BA001F920F920FB60F9211242F933F934F93D1
:1002CA005F936F937F938F939F93AF93BF93EF93B4
:1002DA00FF93E0916600F09167000995FF91EF9115
:1002EA00BF91AF919F918F917F916F915F914F9144
:0E02FA003F912F910F900FBE0F901F901895FF
:100308001F920F920FB60F9211242F933F934F9382
:100318005F936F937F938F939F93AF93BF93EF9365
:10032800FF93E0916400F09165000995FF91EF91CA
:10033800BF91AF919F918F917F916F915F914F91F5
:0E0348003F912F910F900FBE0F901F901895B0
:10035600549A539A80B5806880BD80B5866080BD0A
:10036600529880B58F7780BD83E389B980B5807F49
:0403760080BD0895A9
:10037A00EC010E94DB010E94DA01CE010E94DC013D
:06038A00CE010E94D60125
:0C0390008F93809100008CBF8F91189516
:08039C005D9BFECF8CB90895B2
:0403A4000C940000B5
:0403A80078940895A8
:0403AC000E94550056
:0203B00018959E
:0203B20018959C
:0203B4000895AA
:0203B6000895A8
:0203B8000895A6
:00000001FF
