:100000000C942D000C94E6020C940D030C94340314
:100010000C94BC030C94BC030C9495020C94C30385
:100020000C94C4030C940F020C94A2030C946C0265
:100030000C94C2030C9440020C94BC030C94BC03BB
:100040000C94DB010C94BC030C94BC030C94BC0317
:100050000C94BC030060009B800011241FBECFE500
:10006000D8E0DEBFCDBFE4E5F0E040E017C0B591D9
:10007000A59135912591059107FD0CC0959185912C
:10008000EF01F92FE82F05900D92A217B307D9F7CA
:10009000FE0104C01D92A217B307E1F7E935F4078A
:0E00A00031F70E94C7000C949703F894FFCF2D
:1000AE00411138C0813091F028F08230D9F0833080
:1000BE0029F108952AB381E090E002C0880F991FBC
:1000CE006A95E2F7809582238ABB089527B381E073
:1000DE0090E002C0880F991F6A95E2F780958223FF
:1000EE0087BB089524B381E090E002C0880F991F6A
:1000FE006A95E2F78095822384BB089521B381E04F
:10010E0090E002C0880F991F6A95E2F780958223CE
:10011E0081BB0895413099F5813089F028F0823005
:10012E00C9F0833011F108952AB381E090E002C046
:10013E00880F991F6A95E2F7822B8ABB089527B321
:10014E0081E090E002C0880F991F6A95E2F7822B3A
:10015E0087BB089524B381E090E002C0880F991FF9
:10016E006A95E2F7822B84BB089521B381E090E07B
:10017E0002C0880F991F6A95E2F7822B81BB089502
:10018E000E94BE0341E060E080E00E94570041E023
:10019E0061E080E00E94570041E062E080E00E9452
:1001AE00570060E080E00E941A0161E080E00E944A
:1001BE001A0162E080E00E941A010F2EF8EAEF2E7B
:1001CE00F3E0FF2EF02D08EE13E020E030E048EED5
:1001DE0053E060E070E080E00E94BE020F2EFDEA68
:1001EE00EF2EF3E0FF2EF02D08EE13E020E030E0CE
:1001FE0040ED57E060E070E081E00E94BE020F2EFD
:10020E00F2EBEF2EF3E0FF2EF02D08EE13E020E0E0
:10021E0030E048EB5BE060E070E082E00E94BE02FE
:06022E000E94B703FFCFA0
:100234008130B1F028F0823019F1833089F10895CA
:100244002AB381E090E002C0880F991F6A95E2F713
:100254008095922F98239ABB9BB389238BBB0895D7
:1002640027B381E090E002C0880F991F6A95E2F7F6
:100274008095922F982397BB98B3892388BB0895C0
:1002840024B381E090E002C0880F991F6A95E2F7D9
:100294008095922F982394BB95B3892385BB0895A9
:1002A40021B381E090E002C0880F991F6A95E2F7BC
:1002B4008095922F982391BB92B3892382BB089592
:1002C4000F931F93CF93DF9380919800909199009F
:1002D40001969093990080939800C0E6D0E004E8DA
:1002E40010E0609198007091990080E090E02F8177
:1002F400388549855A850E945B03672B682B692BD7
:1003040081F48A819B81AC81BD810197A109B109E6
:100314008F839887A987BA87E881F981309709F094
:1003240009952C96C017D107E1F680919800909119
:100334009900883E9D4F21F41092990010929800E4
:0A034400DF91CF911F910F910895F2
:10034E00813089F028F08230C9F0833011F10895A0
:10035E002BB381E090E002C0880F991F6A95E2F7F7
:10036E0082278BBB089528B381E090E002C0880FEE
:10037E00991F6A95E2F7822788BB089525B381E01D
:10038E0090E002C0880F991F6A95E2F7822785BB1D
:10039E00089522B381E090E002C0880F991F6A95FC
:0803AE00E2F7822782BB0895EB
:1003B6001F920F920FB60F9211242F933F934F93D4
:1003C6005F936F937F938F939F93AF93BF93EF93B7
:1003D600FF9384B125B1E0918400F091850090E00F
:1003E600922B9183808310929A00E0918600F0917F
:1003F600870009953398FF91EF91BF91AF919F9137
:100406008F917F916F915F914F913F912F910F90B7
:080416000FBE0F901F90189516
:10041E001F920F920FB60F9211242F933F934F936B
:10042E005F936F937F938F939F93AF93BF93EF934E
:10043E00FF93E0919400F0919500099580919200C0
:10044E00909193009DBD80919200909193008CBDF0
:10045E00FF91EF91BF91AF919F918F917F916F918E
:10046E005F914F913F912F910F900FBE0F901F9064
:02047E001895CF
:100480001F920F920FB60F9211242F933F934F9309
:100490005F936F937F938F939F93AF93BF93EF93EC
:1004A000FF935F9B08C0E0919600F0919700309712
:1004B00009F009951CB8FF91EF91BF91AF919F9101
:1004C0008F917F916F915F914F913F912F910F90FD
:0804D0000FBE0F901F9018955C
:1004D8001F920F920FB60F9211242F933F934F93B1
:1004E8005F936F937F938F939F93AF93BF93EF9394
:1004F800FF93E0918E00F0918F00099582E882BF0A
:10050800FF91EF91BF91AF919F918F917F916F91E3
:100518005F914F913F912F910F900FBE0F901F90B9
:02052800189524
:10052A001F920F920FB60F9211242F933F934F935E
:10053A005F936F937F938F939F93AF93BF93EF9341
:10054A00FF93E0919000F0919100309709F009959E
:10055A00FF91EF91BF91AF919F918F917F916F9191
:10056A005F914F913F912F910F900FBE0F901F9067
:02057A001895D2
:10057C00EF92FF920F931F93E114F104E1F090E0DE
:10058C00FC01EE0FFF1FDF01A80FB91FAA0FBB1F45
:10059C00AA0FBB1FA05ABF4F12964D935D936D933C
:1005AC007C93159717960D931D932D933C931A9747
:1005BC00FD01F182E0821F910F91FF90EF90089561
:1005CC001F920F920FB60F9211242F933F934F93BC
:1005DC005F936F937F938F939F93AF93BF93EF939F
:1005EC00FF93E0918C00F0918D000995FF91EF91B4
:1005FC00BF91AF919F918F917F916F915F914F912F
:0E060C003F912F910F900FBE0F901F901895E9
:10061A001F920F920FB60F9211242F933F934F936D
:10062A005F936F937F938F939F93AF93BF93EF9350
:10063A00FF93E0918A00F0918B000995FF91EF9169
:10064A00BF91AF919F918F917F916F915F914F91E0
:0E065A003F912F910F900FBE0F901F9018959B
:100668001F920F920FB60F9211242F933F934F931F
:100678005F936F937F938F939F93AF93BF93EF9302
:10068800FF93E0918800F09189000995FF91EF911F
:10069800BF91AF919F918F917F916F915F914F9192
:0E06A8003F912F910F900FBE0F901F9018954D
:1006B600A1E21A2EAA1BBB1BFD010DC0AA1FBB1F60
:1006C600EE1FFF1FA217B307E407F50720F0A21BD2
:1006D600B30BE40BF50B661F771F881F991F1A943F
:1006E60069F760957095809590959B01AC01BD0169
:0406F600CF01089593
:1006FA0023B72F7723BF23B7287F236023BF23B7CE
:10070A002F7B23BF23B7277F23BF23B72F7C23BF8A
:10071A0090938F0080938E0082E882BF89B78160B0
:04072A0089BF0895E6
:10072E00EC010E94C6030E94C503CE010E94C703BE
:06073E00CE010E94C00381
:0C0744008F93809100008CBF8F9118955E
:0A07500060E080E00E94A701089518
:0A075A0061E080E00E94A70108950D
:0A07640062E080E00E94A701089502
:0A076E0082E691E00E947D030895E9
:040778000C940000DD
:04077C0078940895D0
:040780000E9455007E
:020784001895C6
:020786001895C4
:020788001895C2
:02078A000895D0
:02078C000895CE
:02078E000895CC
:00000001FF
